:020000040800F2
:10000000B80B002041020008EF2F0008CB210008A8
:10001000ED2F00085107000811350008000000000E
:10002000000000000000000000000000393000085F
:100030002908000800000000F12F000857300008D0
:100040005B0200085B0200085B0200085B0200081C
:100050005B0200085B0200085B0200085B0200080C
:100060005B0200085B0200085B02000855070008FD
:10007000610700085B0200085B0200085B020008E1
:100080006D070008790700085B0200080000000007
:100090000000000000000000000000005B020008FB
:1000A0005B0200085B0200085B0200085B020008BC
:1000B0005B0200085B0200085B020008CD2100081B
:1000C0005B0200085B0200085B0200085B0200089C
:1000D0005B0200085B020008053500080000000014
:1000E0005B0200085B0200085B02000800000000E1
:1000F0000000000000000000000000005B0200089B
:10010000000000005B0200085B0200085B020008C0
:1001100000000000000000000000000000000000DF
:100120005B0200085B0200085B0200085B0200083B
:100130005B0200080000000000000000000000005A
:100140000000000000000000000000005B0200084A
:100150005B0200085B0200085B0200085B0200080B
:100160005B0200085B0200080000000000000000C5
:10017000000000000000000000000000000000007F
:10018000000000005B02000800000000000000000A
:100190005B0200085B02000800F002F800F040F883
:1001A0000AA090E8000C82448344AAF10107DA45D2
:1001B00001D100F035F8AFF2090EBAE80F0013F0E4
:1001C000010F18BFFB1A43F001031847CC3500009C
:1001D000EC350000103A24BF78C878C1FAD852072D
:1001E00024BF30C830C144BF04680C6070470000B1
:1001F0000023002400250026103A28BF78C1FBD830
:10020000520728BF30C148BF0B6070471FB503F0CD
:10021000ADFA9DE8030000F08BF91FBD10B510BDCD
:1002200000F014FA1146FFF7F1FF03F083F900F034
:1002300032FA03B4FFF7F2FF03BC00F063FA0000E8
:100240000948804709480047FEE7FEE7FEE7FEE76A
:10025000FEE7FEE7FEE7FEE7FEE7FEE704480549A6
:10026000054A064B70470000ED3000089901000870
:10027000B8040020B80B0020B8070020B807002001
:1002800070B5064600F038F9056806F10B0020F05D
:100290000704B4429CBF002070BD2B466A68BAB107
:1002A0001068A04210D304F1080188423CBF506896
:1002B000586007D35168101941601168091B01602B
:1002C00058601460101D70BD13465268002AE7D1B3
:1002D0002146284600F018F90028DED170BD70B51F
:1002E0000446051F00F008F90068002C14BF44689C
:1002F00070BD002C18BFAC423CBF20466468F8D3E8
:1003000001680A18AA4218BF456003D12A68054649
:100310001144016028684119A1421CBF6C6070BD86
:100320006168696021680844286070BD53EA020C66
:1003300000F069802DE9F04B4FF00006002B1FBF45
:10034000B3FA83F503FA05F424FA05F65E4012BF0A
:100350001643B2FA82F502FA05F4C5F120051EBF74
:1003600022FA05FC44EA0C04203556EA044C4FEA14
:10037000144418BF641C4FF000084FF0000990426D
:1003800071EB030C39D3002919BFB1FA81F701FAD7
:1003900007F6B0FA80F700FA07F6C7F120071EBF8C
:1003A00020FA07FC46EA0C062037B6FBF4FCA7EB64
:1003B0000507103F07F01F0BCBF120060CFA0BFBD3
:1003C0002CFA06F644BFB3460026202FA4BF5E4693
:1003D0004FF0000B5BEA060C08BF4FF0010B19EB66
:1003E0000B09ABFB027C48EB0608C01B06FB02CCEA
:1003F0000BFB03CC71EB0C01C1E70B4602464146F7
:100400004846BDE8F08B13B54FF000004FF00001F7
:10041000AFF30080BDE81C407047032A40F23080F3
:1004200010F0030C00F0158011F8013BBCF1020F35
:10043000624498BF11F801CB00F8013B38BF11F8B6
:10044000013BA2F1040298BF00F801CB38BF00F8CD
:10045000013B11F0030300F0A180083AC0F00880CE
:1004600051F8043B083A51F804CBA0E80810F5E72E
:10047000121D5CBF51F8043B40F8043BAFF3008011
:10048000D20724BF11F8013B11F801CB48BF11F886
:10049000012B24BF00F8013B00F801CB48BF00F856
:1004A000012B70474FF0000200B513469446964664
:1004B000203922BFA0E80C50A0E80C50B1F1200177
:1004C000BFF4F7AF090728BFA0E80C5048BF0CC025
:1004D0005DF804EB890028BF40F8042B08BF704783
:1004E00048BF20F8022B11F0804F18BF00F8012BF5
:1004F000704770477047704700487047600400209D
:10050000704770477047704738B504460A46002068
:100510006946AFF30080002808BF38BD0246009945
:10052000204600F071F8012038BD012000F086B8A7
:10053000F8B5AFF30080054600200C46102000BF40
:100540000646A819A0420DD9324669460020AFF3ED
:100550000080070008BF00F071F80098A04218BFA3
:100560000546C419FFF7C8FF05600746F01D20F0D7
:1005700007004619284600F00AF8B44208BFF8BD43
:10058000A21B31463868BDE8F84000F03DB80021B4
:100590000160C0E9011070471020704710B5203A83
:1005A000C0F00B80B1E81850203AA0E81850B1E82C
:1005B0001850A0E81850BFF4F5AF5FEA027C24BFE2
:1005C000B1E81850A0E8185044BF18C918C0BDE8D9
:1005D00010405FEA827C24BF51F8043B40F8043BA2
:1005E00008BF7047D20728BF31F8023B48BF11F857
:1005F000012B28BF20F8023B48BF00F8012B7047B1
:100600000048704758040020034640688C46002884
:1006100018BF88423CBF03464068F8D318681844A6
:10062000884207D00CF1030020F00700001D411A9A
:10063000521A0146081D0A60FFF751BE10B500F0BE
:1006400039F8BDE8104000F02FB870477546FFF745
:10065000D7FFAE4605006946534620F007008546A1
:1006600018B020B5FFF7FAFDBDE820404FF00006B6
:100670004FF000074FF000084FF0000B21F007018A
:10068000AC46ACE8C009ACE8C009ACE8C009ACE8CD
:10069000C0098D46704710B50446AFF30080204670
:1006A000BDE81040FFF7C5BD002801D000F02AB812
:1006B0007047000010B5012805D0002103A000F00C
:1006C00027F8012010BD09A1F8E70000534947525F
:1006D000544D454D3A204F7574206F662068656112
:1006E00070206D656D6F7279000000003A204865DA
:1006F0006170206D656D6F727920636F72727570B5
:100700007465640001491820ABBEFEE726000200B4
:1007100070B505460C460A2000E06D1C00F011F88B
:1007200035B128780028F8D102E0641C00F009F8FF
:1007300014B120780028F8D1BDE870400A20AFF34A
:10074000008008B569468DF800000320ABBE08BDE7
:10075000FEE70000014800F0CBB80000D8020020FE
:10076000014800F0C5B8000038030020014800F03F
:10077000BFB8000098030020014800F0B9B800009D
:10078000F803002001681823CAB2103AB2FBF3F252
:10079000054B6FF30901032A9B5CC36500D9091D52
:1007A00081650846704700007637000810B501469D
:1007B00000208B698A6A4FF0C07453B1B3F5005FB3
:1007C00015D072B1012A0CD0022A0AD0032A09D10D
:1007D00004E01AB1012A06D0022A03D1C96AC9016C
:1007E00000D5012010BDC96AA142FAD010BD002A6F
:1007F000F7D0012AF2D0022AF3D0032AF3D010BD99
:1008000030B50468256825F4802525600468636098
:100810008368402B036803D099600068C26030BDD4
:100820009A600068C16030BD704772B6FEE72DE97E
:10083000F0410446876D00F0CFFA064694F8350083
:100840000025022806D08020606584F834500120FD
:10085000BDE8F0812068016821F016010160206880
:10086000416921F080014161206C08B9A06C20B180
:100870002068016821F0080101602068016821F00A
:10088000010101600CE000F0A7FA801B052807D9E0
:1008900020206065032084F8350084F83450D7E7C1
:1008A00020680068C007EED194F85C103F208840B3
:1008B000B860012084F8350084F834500020C7E780
:1008C00090F83510022903D080214165012070473E
:1008D000052180F835100068016821F001010160F0
:1008E00000207047406D704790F835007047000059
:1008F0002DE9F84304464FF00009CDF80090634815
:100900004FF41651A56D0068B0FBF1F72E6894F80E
:100910005C10082000FA01F131420FD021680A680A
:1009200052070BD50A6822F004020A6094F85C10A2
:100930008840A860606D40F00100606594F85C102C
:100940004FF0010808FA01F0304208D021684969E7
:10095000090604D5A860606D40F00200606594F857
:100960005C1004208840304208D02168096889075B
:1009700004D5A860606D40F00400606594F85C10D8
:1009800010208840304218D021680968090714D522
:10099000A86020680168490304D50068000308D5F1
:1009A000A16C07E00168C90503D4016821F00801C2
:1009B0000160216C09B12046884794F85C10202022
:1009C0008840304231D021680968C9062DD5A86019
:1009D00094F8350005282068016806D0490347D5FA
:1009E000006800031DD4616C1CE021F01601016059
:1009F0002068416921F080014161206C08B9A06C38
:100A000020B12068016821F00801016094F85C10B1
:100A10003F208840A86084F8358084F83490216DA8
:100A20001FE0E16B09B120468847606D00282BD09C
:100A3000606DC00714D0052084F835002068016877
:100A400021F0010101600098401C0090B84203D8D9
:100A500020680068C007F6D184F8358084F83490A7
:100A6000E16C002910D001B02046BDE8F0430847F2
:100A70000168C905D5D4016821F01001016084F82E
:100A8000358084F83490CCE7BDE8F883300000204E
:100A90002DE9F041044600F09FF906465CB10220C2
:100AA00084F83500002584F834502068016821F06E
:100AB000010101600DE00120BDE8F08100F08CF93A
:100AC000801B052805D920206065032084F83500A7
:100AD000F2E720680068C007F0D12268116820485A
:100AE0000140D4E901031843D4E9033633431843E2
:100AF00063691843A3691843E3691843236A1843D9
:100B00000843616A042903D1D4E90B13194308434C
:100B1000106020684069666A20F0070130460E4385
:100B2000012704280CD1A06A0643E06A40B12046A0
:100B3000FFF73CFE20B14020606584F83570BAE7CD
:100B4000206846612046FFF71DFE94F85C203F2197
:100B500091408160656584F835700020ACE7000045
:100B60003F8010F02DE9F0410446866D90F8340086
:100B7000002501280DD0012084F8340094F8357048
:100B80000020012F07D084F8340002252846BDE854
:100B9000F0810220FBE7022784F83570606520466B
:100BA000FFF72EFE94F85C103F208840B06020686C
:100BB000016841F016010160206C20B120680168D5
:100BC00041F0080101602068016841F00101016005
:100BD000DCE7000070B5044600F0FEF80546601C36
:100BE00002D004480078044400F0F6F8401BA0420C
:100BF000FAD370BD240000202DE9F84FDFF8B8A12A
:100C0000002201240AF1040B03254FF00F090BF118
:100C1000040E00BF0B6804FA02F63340B34273D1EE
:100C20000F7907F00307012F01D0022F16D1876833
:100C30004FEA420805FA08FC27EA0C07D1F80CC075
:100C40000CFA08FC4CEA070CC0F808C04768B74328
:100C50000E79C6F3001696403E4346600E79F64381
:100C6000B6070DD0C768560005FA06FC27EA0C0740
:100C7000D1F808C00CFA06FC4CEA070CC0F80CC00E
:100C80000E7906F00306022E10D1D60800EB860876
:100C9000D8F8206057074FEAD76C09FA0CF7BE4323
:100CA0000F6907FA0CF73743C8F8207006684FEA57
:100CB000420C05FA0CF7BE430F7907F0030707FA59
:100CC0000CF7374307604E6816F4403F6DD03B4E3B
:100CD000376847F480473760366822F0030706F428
:100CE00080460096364E07EB060CDCF8086897073E
:100CF0003F0F09FA07F826EA0806DFF8C8804045E2
:100D000003D14FF000081EE04FE0DFF8BC80404503
:100D100002D14FF0010816E0DFF8B080404502D163
:100D20004FF002080FE0DFF8A880404502D14FF0F5
:100D3000030808E0DFF89C80404502D14FF004082A
:100D400001E04FF0070808FA07F848EA0608CCF86F
:100D50000888DAF800605746D1F804C09E435FEA7D
:100D6000CC3C00D51E433E60DBF800605F46D1F806
:100D700004C09E435FEA8C3C00D51E433E60DEF813
:100D800000607746D1F804C09E435FEACC2C00D5C2
:100D90001E433E60084F0C373E68D1F804C09E43A6
:100DA0005FEA8C2C00D51E433E60521C102AFFF4D3
:100DB00031AFBDE8F88F0000003C014044380240EC
:100DC00000300140000002400004024000080240E0
:100DD000000C02400010024001488068704700008B
:100DE00024000020704770472DE9F0470268002179
:100DF0005368C66A90F83E4090F83D50102C12D0CF
:100E0000402C10D0046C002C7DD05469E443A6071C
:100E10007AD4DE43B60577D4036C03B19169BDE89B
:100E2000F04701F00FBF976951694FF42A0CC9438D
:100E30005FEAC1784FF02A4904D066452AD04E4572
:100E400028D010E0DE43B6050DD4C16A614501D15A
:100E5000012103E0C16A494501D10821C162BDE811
:100E6000F04701F087BD0E0716D4DE43B60513D454
:100E7000416CC9B21161416B09B1C96B29B9816B70
:100E8000002907D0C96B002904D00068416841F4EB
:100E900000614160BDE8F0878E0706D4DE43B605E9
:100EA00003D4BDE8F04701F0D9BCFE435268760791
:100EB0004FEA02521DD4002AECDB0A0608D4DA43BA
:100EC000520505D4490705D5BDE8F04701F06ABCD5
:100ED0004907DFD4D9438905DCD4212D05D0402C26
:100EE000D8D1BDE8F04701F08BBDBDE8F04701F077
:100EF00017BC002ACEDB4A060BD4DA43520508D4CD
:100F0000490708D501E00DE00EE0BDE8F04701F02B
:100F100093BB4907BED4D9438905BBD4BDE8F0478C
:100F200001F021BB916970E7E10606D4D943890538
:100F300003D4BDE8F04701F0A9BE2821212D27D018
:100F4000292D25D0650655D4DD436D0552D464079F
:100F500052D590F83D30448D002C9BD01269446AE4
:100F60002270426A521C4262428D521E4285428D5C
:100F7000002A8FD12A2B8DD10268536823F4806315
:100F800053602222026380F83D1000F06DFB81E780
:100F9000250623D4DD436D0520D4640720D590F8C1
:100FA0003D30448D002CF2D0446A24781461426AAA
:100FB000521C4262428D521E4285428D002AE6D169
:100FC000292BE4D10268536823F480635360212203
:100FD000026380F83D1000F048FB5BE76107D6D460
:100FE000D9438905D3D4418D0029D0D0416A0978ED
:100FF00011610AE06107CAD4D9438905C7D4418D7C
:101000000029C4D01169426A1170416A491C4162C9
:10101000418D491E41853DE77047000070B50400D1
:1010200025D094F83D00002520B984F83C50204696
:1010300000F0ACFA242084F83D002068016821F01B
:10104000010101602068016841F4004101602068ED
:10105000016821F40041016000F03CFC4D4A6168E8
:10106000914201D84C4900E04C49884201D201200C
:1010700070BD4B492368B0FBF1F15E6826F03F0676
:101080000E435E606368934206D94FF496735943EA
:101090004FF47A73B1FBF3F12368491C1E6A26F002
:1010A0003F06314319626168914210D84900401EE1
:1010B000B0FBF1F2521CC2F30B02042A01D204204D
:1010C00022E0B0FBF1F0401CC0F30B001CE0A26872
:1010D000F2B301EBC10303EB0116431EB3FBF6F3BE
:1010E0005B1C43F480431B0549D092B301EBC10262
:1010F00002EB0111401EB0FBF1F0401CC0F30B00ED
:1011000040F4804040F400402168CA694CF6FF7307
:101110009A431043C861D4E907100143206802686C
:1011200022F0C00211430160D4E9030101432068A9
:10113000826848F2FF339A4311438160D4E9050184
:1011400008432168CA6822F0FF021043C86001E02A
:101150000EE016E02068016841F00101016025649D
:10116000202084F83D00256384F83E50002070BDA7
:1011700001EB4106431EB3FBF6F35B1CB3E7012012
:10118000C2E701EB4101401EB0FBF1F0401CC0F38F
:101190000B00B7E7A086010080841E0000093D0017
:1011A00040420F0070477047704700002DE9F04142
:1011B0002A490068096888424DD1012228492948F6
:1011C00001F03BFF264C284D284E98B14FF4007794
:1011D0003846FFF755F8E060297800F8011B1F49F1
:1011E0003A465431FFF719F9E1683078BA1C81F8B2
:1011F00001022AE01A490122C91C1A4801F01DFF08
:1012000060B10320FFF73CF80146E06028780870E1
:101210006079487030788870032216E01049012206
:10122000091D104801F009FF002814D00720FFF71E
:1012300027F80146E060287808702069C1F80100AD
:10124000207D4871307888710722BDE8F04103485D
:10125000443800F065BFBDE8F08100008400002044
:101260000C000020030000200100002002000020EC
:10127000044900680968884202D10A20FFF7AABC25
:1012800070470000840000202DE9FC5F99469246DB
:101290008B460446DDF83080FFF79EFD00250646AC
:1012A000009594F83D00202872D1684846F2A811B4
:1012B00020270068B0FBF1F000EBC00101EB00104B
:1012C00000900098401E009010D020688069C043B4
:1012D0008007F6D594F83C00012859D0012084F805
:1012E0003C0020680168C9070AD00DE044F8305F6F
:1012F0006773A573206940F020002061257392E098
:10130000016841F0010101602068016821F4006179
:101310000160222084F83D00402084F83E002564CE
:10132000C4F824800D986085608D20854848E0626F
:10133000C4F844B0C4F848A0C4F84C902565208D8A
:101340004FF02308002865D0A06B10B34149C1635A
:10135000A16B4148C864A06B0564A06B4564A06B99
:101360008564A06B05652168238D1031626AA06BCE
:10137000FFF7F8FBB0B184F83D7084F83E5054F8A4
:10138000400F40F0100000BF44F8040925704AE007
:101390005AE084F83D7084F83E5054F8400F40F015
:1013A0008000F1E7CDE900864B465246594620467B
:1013B00001F076FB88B1A06BFFF782FAA06BC563E2
:1013C0002068016821F480610160258565852068B9
:1013D000016821F00101016025E0208D01282068CD
:1013E00013D0416841F480514160206841698169AE
:1013F000009184F83C50416841F48071416020685C
:10140000416841F4006141601CE0016821F48061A1
:101410000160EAE7CDE900864B4652465946204630
:1014200001F03EFB10B10120BDE8FC9F206841693E
:1014300081690091016841F40071016084F83D7098
:1014400084F83C500020EFE70220EDE73000002058
:101450000000FFFFD5220008952200082DE9FF4F6C
:1014600083B09A46DDE9119793460446DDF8408043
:10147000FFF7B2FC054694F83D0020287FD11923E0
:10148000012240492046009501F0D4FC002876D185
:1014900094F83C00012872D0012084F83C002068B8
:1014A0000168C90703D1016841F0010101602068AA
:1014B000016821F400610160212084F83D00402092
:1014C00084F83E0000262664C4F82480A4F82A90FC
:1014D000608D20852C48E062CDE9007553465A4660
:1014E0002046049901F05AFB70B930E02A4639468B
:1014F000204601F01EFD58B1206C042804D120685C
:10150000016841F400710160012007B0BDE8F08F6F
:10151000606A216800780861606A401C6062218D01
:10152000491E89B22185628D521E628522685369E7
:10153000DB435B070BD469B100781061606A401C23
:101540006062208D401E2085608D401E6085208D4C
:101550000028CBD12A463946204601F045FC002818
:10156000CAD154F83D0B016841F40071016020209C
:1015700004F81E09E67766770020C6E7FFE7022039
:10158000C3E70000020010000000FFFFF0B587B0C5
:10159000064614216846FEF785FF2D4930688842CB
:1015A00054D12C480024016841F002010160006818
:1015B000694600F002000590C020009012200190C2
:1015C0000120029003200390042004902248FFF79A
:1015D00013FB20481030016841F4001101600068DD
:1015E0001F4D00F4001005901C4828604005C5E917
:1015F0000104C713C5E903476C61AC61EC612C625F
:1016000028466C62FFF744FA08B1FFF70EF9B5639C
:10161000AE631248134D1830E5E80204402091C52E
:10162000104845F81449AC61EC612C626C62FFF71C
:101630002FFA08B1FFF7F9F87563002211461F2051
:10164000AE6300F07BF81F2000F06AF807B0F0BD31
:101650000054004030380240000402401060024054
:10166000D802002038030020704770470248816884
:101670000278114481607047240000200B4810B5A7
:10168000016841F400710160016841F4806101600A
:10169000016841F480710160032000F06FF80F20B1
:1016A00000F006F800F024F8002010BD003C0240D5
:1016B00070B50D4D04464FF47A712878B1FBF0F007
:1016C0000A490968B1FBF0F000F00AFB48B9102C98
:1016D00007D200222146501E00F030F800206C6036
:1016E00070BD012070BD00002400002030000020EB
:1016F0000A4808B5016841F480410160006800F4BF
:10170000804000900548001F016841F08051016051
:10171000006800F08050009008BD0000443802408E
:10172000002809DB00F01F020121914040098000E0
:1017300000F1E020C0F8001170470000F0B40E4B3B
:101740001B680C46C3F30223C3F10705042D00D91F
:101750000425191D072901D2002300E0DB1E012604
:1017600006FA05F1491E214099409E40761E16401A
:101770003143F0BC01F0CDBE0CED00E0064900F0B5
:10178000070208684FF6FF03184040EA0220034AA8
:1017900010430860704700000CED00E00000FA05FF
:1017A0002DE9F0470E46050065D0DFF81481D8F822
:1017B0000000F7B200F00700B04207D288F80070CE
:1017C000D8F8000000F00700B04254D128683D4C22
:1017D000810712D5400703D5206840F4E05020600F
:1017E0002878000703D5206840F460402060206816
:1017F000A96820F0F000084320602878C0072DD0A9
:10180000304968680839012812D0022813D003280B
:1018100011D00968890700292DDA216821F0030118
:1018200001432160FFF7D8FA814641F2883A0EE081
:1018300009688903EFE709688901ECE7FFF7CCFA4B
:10184000A0EB0901514502D90320BDE8F0872068CB
:10185000696800F00C00B0EB810FEFD1D8F80010F0
:10186000404601F00701B14207D90770006800F057
:101870000700B04201D00120E7E72878400705D5EE
:101880002068E96820F4E0500843206028780007C9
:1018900006D52068296920F4604040EAC100206034
:1018A00000F038F82168084AC1F30311515CC840C0
:1018B0000649086006480068FFF7FAFE0020C4E702
:1018C000003C0240083802407E370008300000200B
:1018D000280000200448054900680968044AC1F34B
:1018E0008221515CC8407047300000200838024017
:1018F0008E3700080448054900680968044AC1F3A6
:101900004231515CC8407047300000200838024026
:101910008E370008154810B5006810F00C02144806
:1019200013D04110042A0FD0082A0ED10F4C241FC7
:101930002268236802F03F025B0207D52068C0F3EB
:101940008810A0FB010106E0084610BD2168C1F324
:101950008811A1FB00010023FEF7E8FC2168C1F318
:101960000141491C4900B0FBF1F010BD08380240AC
:101970000024F4002DE9F84F04006ED02078DFF841
:101980004C93C007A9F104054AD009F1040001688D
:10199000C1F38101012908D00068C0F38100022849
:1019A0000AD1D9F80000400206D52868800337D54F
:1019B00060680028E1D033E06068B0F5803F10D067
:1019C000B0F5A02F286810D020F480302860286857
:1019D00020F4802028606068A8B1FFF7FDF9064672
:1019E0000DE0286840F48030F4E740F4802028605F
:1019F000F7E700BFFFF7F0F9801B642873D8286869
:101A00008003F7D50CE0FFF7E7F9064605E000BFD5
:101A1000FFF7E2F9801B6428F0D828688003F7D428
:101A20002078DFF8AC8280074FF0000A3ED5A74847
:101A3000001D016811F00C0F08D00068C0F3810090
:101A400002280BD1D9F80000400207D4286880078B
:101A500016D5E068012800D112E033E1E068B8B1A2
:101A60000120C8F80000FFF7B7F9064605E000BFFF
:101A7000FFF7B2F9801B0228C0D828688007F7D585
:101A80002868216920F0F80040EAC10028600DE0D4
:101A9000C8F800A0FFF7A0F9064604E0FFF79CF99C
:101AA000801B02281FD828688007F7D420780007F9
:101AB00022D5864F87486169703771B10121016075
:101AC000FFF78AF9064604E0FFF786F9801B022833
:101AD00009D838688007F7D50EE0C0F800A0FFF7F6
:101AE0007BF9064605E082E0FFF776F9801B0228C5
:101AF0007DD838688007F7D42078400768D5DFF8AC
:101B0000CCB100270BF13C0BDBF80000C0000BD47C
:101B1000DBF8001041F08051CBF80010DBF800003A
:101B2000012700F0805000906B4E3068C00510D443
:101B3000306840F480703060FFF74EF9009005E0A7
:101B4000FFF74AF90099401A022850D83068C005BA
:101B5000F6D55E4EA0686C3601280FD00528306897
:101B600010D020F001003060306820F004003060B8
:101B7000A068B8B1FFF730F900900FE0306840F08E
:101B80000100F4E740F004003060F7E7FFF724F9C4
:101B90000099411A41F28830814266D83068800746
:101BA000F4D50EE0FFF718F9009007E0FFF714F9FD
:101BB0000099411A41F28830814256D83068800736
:101BC000F4D42FB1DBF8001021F08051CBF80010D5
:101BD000A069C8B33D49091D0968C1F38101022903
:101BE0004AD00228504607D0C8F8600000E03CE028
:101BF000FFF7F2F804463BE04746C8F86000FFF7FD
:101C0000EBF8064605E000BFFFF7E6F8801B022868
:101C10002BD828688001F7D4D4E907010843A16ACA
:101C20002E4A490802EB0141626A41EA82110843E7
:101C300094F82C1040EA0161C9F8001001203866C0
:101C4000FFF7CAF8044606E03EE000BFFFF7C4F81D
:101C5000001B022809D828688001F7D534E000BFAE
:101C6000FFF7BAF8001B022802D90320BDE8F88F5D
:101C700028688001F4D427E00128F7D0D9F80000C3
:101C8000E26900F4800191421CD1226A00F03F0118
:101C9000914217D147F6C071626A0140B1EB821FD1
:101CA00010D1A26A4FF0FF3300F4403103EB52022F
:101CB000B1EB024F06D194F82C1000F07060B0EB3D
:101CC000016F01D00120D1E70020CFE704380240A6
:101CD00000004742800E4742007000400000FFFFB6
:101CE00010B5401EB0F1807F01D3012010BD4FF030
:101CF000E02460610F21601701F00BFC0020A0615F
:101D000007202061002010BD70477047F8B50168BA
:101D100004460868CA684B6910F00F0F4FF00005C1
:101D200059D003F0010602F49077374365D0C1071C
:101D300005D0D10503D5216C41F001012164410793
:101D400005D5D90703D0216C41F002012164810738
:101D500005D5D90703D0216C41F0040121640107A6
:101D600007D502F02001314303D0216C41F0080176
:101D70002164216C00293AD0800604D5900602D552
:101D8000204601F091FA20684069216CC0F3801070
:101D9000090700D460B3204601F051FA2068406979
:101DA000400621D52068143050E8001F21F0400182
:101DB00040E80012002AF5D1A06BA8B16C4901657A
:101DC000A06BFEF77DFD002811D0A06B016D01B066
:101DD000BDE8F040084783060FD593060DD5204691
:101DE000BDE8F84001F060BA2046FFF78EFFF8BD6D
:101DF0002046FFF78AFF2564F8BD266B2023012EBD
:101E000079D1C60677D5D60675D50868486800909A
:101E10004869400640D5A16B086840680004000C82
:101E2000EAD0A28D8242E7D9E085C869B0F5807F0B
:101E30002DD020680C3050E8001F21F4807140E85C
:101E40000012002AF5D12068143050E8001F21F05C
:101E5000010140E80012002AF5D12068143050E852
:101E6000001F21F0400140E80012002AF5D184F85B
:101E70003E30256320680C3050E8001F21F010012F
:101E800040E80012002AF5D1A06BFEF7D0FCA08D2F
:101E9000E18D401A81B229E0A08DE18D401A81B216
:101EA000E08D0028A8D00029A6D020680C3050E88A
:101EB000002F22F4907240E80026002EF5D1206811
:101EC000143050E8002F22F0010240E80026002ED6
:101ED000F5D184F83E30256320680C3050E8002F9F
:101EE00022F0100240E80023002BF5D12046FFF736
:101EF0000BFFF8BDFFE705062BD5150629D594F88D
:101F00003D002128F5D1A068B0F5805F01D120699E
:101F1000B0B1206A411C2162216800784860E08CE1
:101F2000401E0004000CE084E3D12068C16821F069
:101F30008001C1602068C16841F04001C160D8E7FC
:101F4000206A0088C0F308004860206A801C206274
:101F5000E5E74006CDD55006CBD5CA68204622F02D
:101F60004002CA6084F83D3000F020F9C1E700006B
:101F7000FD30000870B5040004D094F83D00002541
:101F800010B106E0012070BD84F83C50204600F0FE
:101F900023F8242084F83D002068C16821F4005112
:101FA000C160204601F0E0F92068016921F4904108
:101FB00001612068416921F02A0141612068C168FE
:101FC00041F40051C1602564202084F83D0084F86C
:101FD0003E00002070BD00002DE9F04186B00646AD
:101FE00014216846FEF75EFA2E493068884256D1C1
:101FF0002D480024016841F400310160006800F4BC
:102000000030059028481038016841F00101016056
:102010000068694600F0010005900C200090022045
:10202000CDE9010403200390072004901F48FEF728
:10203000E3FD204D1E484FF000672860C5E901749C
:102040004FF48068C5E903486C61AC61EC612C62B7
:1020500028466C62FEF71CFD08B1FEF7E6FBB5638F
:10206000AE631348144D1830E5E802074020A5E898
:102070001101114845F81449AC61EC612C626C62A5
:10208000FEF706FD08B1FEF7D0FB7563002211468E
:102090002620AE63FFF752FB2620FFF741FB06B078
:1020A000BDE8F0810044004040380240000002409A
:1020B0008860024098030020F803002090F83E302A
:1020C000202B0ED159B152B190F83C30012B08D0E1
:1020D000012380F83C300023036301F0CBB90120D9
:1020E000704702207047000010B509490068096870
:1020F00088420BD1074A0A21074800F07BFFBDE860
:1021000010400A2204490248FFF7D8BF10BD000062
:102110004000002000000020340000207047000034
:1021200070B5044690F83D00202836D191B38AB3AB
:1021300094F83C00012830D0012084F83C00216252
:10214000A284E28400252564212084F83D00636B8D
:102150001348D863636B13481864636B1248D864E0
:10216000606B134605652668606B321DFEF7FAFC4E
:1021700021686FF04000086084F83C5020681430FB
:1021800050E8001F41F0800140E80012002AF5D11C
:10219000002070BDFFE70120FBE70220F9E7000007
:1021A000F3310008353200080D3100080449006899
:1021B0000968884203D103480068FEF790B8704769
:1021C00040000020180000207047FEE70148FEF79D
:1021D0000BBE00008400002038B5806B002190F811
:1021E0003D202B4B46F2A8141B68B3FBF4F3C3EB62
:1021F000C30303EB830300933BB15B1E00930368AF
:102200001B689B0505D5009BF6E7036C43F0200394
:102210000364436B03B1D963836B03B1D963036870
:102220001C6824F480641C604185436B03B119650C
:10223000836B03B1196503681C6824F001041C60FA
:1022400090F83D402023602C0BD0282434EA020271
:102250000FD080F83D3080F83E1000BFFEF7DCFE66
:1022600038BD80F83D3080F83E100164FEF7BAFDBD
:1022700038BD0268136843F00103136002681368F5
:1022800043F480631360016380F83D40E6E700009B
:102290003000002070B5846B0025616B01B1CD6307
:1022A000A16B01B1CD63FEF71DFB022811D02068A0
:1022B000016821F4806101606585202084F83D007B
:1022C00084F83E50206C40F0100020642046FEF759
:1022D000A3FE70BD2DE9F041846B94F83D2094F885
:1022E0003E50E16A2068436823F440734360636BA7
:1022F000002003B1D863A36B03B1D863212333EA71
:1023000002074FF022060CD036EA020701D1202D39
:1023100007D094F83E20002A21D0628D012A20D0D7
:1023200024E021684D6825F400654D606085282013
:10233000292A02D02A2A07D00CE0236384F83D0022
:102340002046FFF792F905E0266384F83D00204619
:10235000FFF78AF92068416841F440714160BDE8A7
:10236000F0812268136823F4806313602268536845
:1023700023F44073536011F5803F06D0082904D040
:10238000B1F12A4F01D0202904D121680A6842F412
:1023900000720A6021684A6822F480524A6021680B
:1023A0004A6822F400624A606085216C19B12046B7
:1023B000FEF732FED3E7202184F83D1094F83E105A
:1023C00084F83E00402905D0122020632046FEF705
:1023D000EAFEC4E720632046FEF7E8FEBFE7000000
:1023E00070B5044690F83D0094F83E10102901D0D5
:1023F000402906D1222804D121680A6822F400620B
:102400000A60282131EA00024FF000054FF0200653
:1024100026D021684968090505D4602803D084F8CE
:102420003D6084F83E50256320684168090537D532
:10243000416821F400614160606B90F835203C49AF
:10244000012A11D00165606BFEF73AFA38B32068B3
:10245000016821F00101016084F83D60606B1CE0BF
:10246000256384F83D10DFE7A06B0165A06BFEF7E4
:1024700027FAA0B120684169C943490605D400691B
:10248000616A0870606A401C60622068016821F01F
:102490000101016084F83D60A06B016D884710E088
:1024A00094F83D10602910D04169C943490605D40C
:1024B0000069616A0870606A401C60622046FEF72D
:1024C000ABFD206CC1071CD115E084F83D6025648C
:1024D0004169C943490605D40069616A0870606AA8
:1024E000401C60622068016821F001010160204603
:1024F000FEF778FCE5E7810703D4410701D4000724
:1025000004D52068416821F4E061416094F83D0001
:10251000216C49070BD5282809D10648E0622563BC
:1025200084F83D6084F83E502046FEF73BFE70BDC7
:10253000D92100080000FFFF01684A69D243520513
:102540000FD46FF480624A61002140F8301F2022CE
:1025500042738173026942F0040202610173012037
:1025600070470020704710B5C26A438D0168042B84
:1025700006D0438D032B08D0438D022B1DD012E0D3
:102580004A6822F480624A600CE04B6823F480635E
:102590004B60042A06D0022A04D001680A6822F49B
:1025A00080620A6001680969426A1170416A491CC7
:1025B0004162418D491E418510BD012A30D0102A4B
:1025C0002ED0042A30D0022A2ED00A6842F400729B
:1025D0000A6001680969426A1170416A491C4162D6
:1025E000428D521E4285026812690A70416A491C76
:1025F0004162418D491E418501684A6822F440725A
:102600004A60202180F83D1090F83E200021402AA9
:1026100080F83E100CD012210163FEF7C4FD10BDFE
:102620000A6822F48062D3E70A6842F48062CFE746
:102630000163FEF7BBFD10BD38B590F83D102229AF
:1026400014D1418D032912D901680969426A1170B8
:10265000416A491C4162418D491E4185418D0329D2
:1026600004D10068416821F48061416038BDC26ACC
:10267000022AFBD0012901D00029F7D1274946F2CF
:10268000A81300220968B1FBF3F101EB810100916D
:1026900001682023009C641E009422D00C68A405CD
:1026A000F8D40C6824F480640C6001684C6824F44D
:1026B000E0644C6001680969446A2170416A491C00
:1026C0004162418D491E418580F83D3090F83E10B1
:1026D00080F83E2040291DD012210163FEF763FDE2
:1026E00038BD046C44F0200404644C6824F4E064B5
:1026F0004C6001680969446A2170416A491C416261
:10270000418D491E418580F83D3080F83E20FEF71E
:1027100083FC38BD0263FEF749FD38BD3000002060
:1027200010B5C26A90F83D1021290BD1418D51B1ED
:10273000416A026809781161416A491C4162418D10
:10274000491E418510BD20230021082A13D0202ACC
:1027500011D012F5803F0ED00268546824F4E06472
:1027600054601122026380F83E1080F83D3000BFB3
:10277000FEF71AFD10BD0268546824F4E06454604A
:102780000268146844F400741460016380F83D30FA
:1027900090F83E2080F83E10402AE9D1FEF768FD0F
:1027A00010BD000010B590F83D1090F83E30C26AA0
:1027B000048DB4B1212903D0402B11D122290FD18E
:1027C000418DE1B390F83E10402942D0416A026841
:1027D00009781161416A491C4162418D491E418558
:1027E00010BD2129E8D120230021082A13D0202A56
:1027F00011D012F5803F0ED00268546824F4E064D2
:1028000054601122026380F83E1080F83D3000BF12
:10281000FEF7CAFC10BD0268546824F4E0645460FA
:102820000268146844F400741460016380F83D3059
:1028300090F83E2080F83E10402AE9D100E002E006
:10284000FEF716FD10BD0068416821F4806141600B
:1028500010BDBDE8104000F0D3B8000078B590F886
:102860003E50C26A036B90F83D6000240168222E3E
:102870007AD1066D0EB9402D76D0056D1DB905696A
:10288000B5F5404F09D0458D05B3468D384D012E25
:102890000ED0438D022B3AD05DE04A698A690092DE
:1028A0000A6842F480720A60016D491C016578BDB6
:1028B000AA4213D10A6822F480620A6001684A6859
:1028C000120503D50A6822F4806216E04A698A6913
:1028D00000920A6842F400720A6039E0082A10D0B7
:1028E000202A0ED0122B0AD0042A03D0022A01D0AB
:1028F000102AE7D10A6842F480620A6024E0012AC3
:10290000E0D00A6822F480620A600168DEE7042AE7
:1029100021D0022A1FD0102A1DD00B6823F4806317
:102920000B6001680B6843F400630B6001684B683F
:102930001B0509D5AA4212D0012A10D0082A0ED0B0
:10294000102A0CD0202A0AD001684A6989690091AE
:10295000046578BD08E00B6843F48063E5E74A68E6
:1029600042F480524A60EFE7486988690090F0E7D6
:102970000000FFFF90F83E10402910D00169B1F52A
:10298000804F19D0016DA9B3016D012910D1416C9F
:102990005FF0F10201F4407142EAD11106E0016DED
:1029A0000029416C05D0C9B241F001010068016104
:1029B000704701F0FE01F9E790F83D102129416CC4
:1029C00009D0C9B241F0010102681161416B29B11E
:1029D000C96B49B902E001F0FE01F5E7816B0029FE
:1029E000E6D0C96B0029E3D00068416841F400617A
:1029F00041607047FFE7416CF02201F44071CBE782
:102A000010B590F83D10026D22B3026D012A2FD04F
:102A1000026D022A1DD122292FD0428D0AB121290F
:102A200033D0428D002A14D1212912D101684A687D
:102A300022F4E0624A6001680A6842F400720A60A7
:102A400000210163202280F83D2080F83E10FEF72F
:102A50000FFC10BDC16C0129816C02D0C1F30721AC
:102A600008E00268C9B21161016D891C016510BDE1
:102A7000816CC9B20268116104E001680A6842F41D
:102A800080720A60016D491CF0E7416A02680978AA
:102A90001161416A491C4162418D491E418510BD49
:102AA0002DE9F84F0446006889460B9D0168984659
:102AB000174641F4806101602068016841F480712B
:102AC000016000954FF0011B0022594620460A9BE9
:102AD00000F0B0F94FF4007A40B120680068C005FA
:102AE00001D5C4F840A00320BDE8F88F216809F0A3
:102AF000FE0008612B46284920460A9A00F0CEF9CC
:102B0000F0BB20684169806900902A4620460A99F6
:102B100000F00FFA40B1206C04283AD12068016817
:102B200041F40071016034E0FEB2B8F1010F09D048
:102B30002168380A08612A4620460A9900F0F9F906
:102B40000028E8D1206806612A4620460A9900F04C
:102B5000F0F90028DFD12068016841F4807101603C
:102B600000950022594620460A9B00F063F9002890
:102B7000B3D1216809F0FF0040F00100086100E0D6
:102B800007E02B46044920460A9A00F087F90028FE
:102B9000AAD00120A8E70000020001002DE9F843B7
:102BA000044600680D46DDE9089701689846164618
:102BB00041F4807101604B4600224FF00111204624
:102BC000009700F037F948B120680068C00502D5C9
:102BD0004FF4007020640320BDE8F883216805F0FD
:102BE000FE0008613B464A461549204600F056F96A
:102BF00088B920684169806900903A464946204674
:102C000000F097F948B1206C042804D120680168CD
:102C100041F4007101600120DEE7F5B2B8F1010F67
:102C200009D02168300A08613A464946204600F03A
:102C300080F90028E7D1206805610020CCE700007A
:102C40000200010038B50C4690F83D2000212825EF
:102C5000954302680B4605D051699169009180F84F
:102C60003C3038BD556825F480655560E243540713
:102C700000D50121120601D5828900E0028B80F87F
:102C80003C3092B2FEF7AFF838BD0000F8B590F8CE
:102C90003D6004460068416821F4E06141602068BD
:102CA000002541690091016841F00101016020683F
:102CB000016821F48061016020684168090520D520
:102CC000474F222E48D02A2E46D0616B09684968AA
:102CD0006185618D19B1216C41F004012164416865
:102CE00021F400614160606BFDF7FEFD012808D012
:102CF000606B0765606BFDF7E3FD10B1606B016D04
:102D00008847608D08B320684169C943490708D4E2
:102D10000069616A0870606A401C6062608D401ED4
:102D2000608520684169C943490608D40069616A21
:102D30000870606A401C6062608D401E6085608D16
:102D400018B1206C40F004002064206C00B32046D1
:102D5000BDE8F840FFF744BBA16B0968496861858D
:102D6000618D19B1216C41F004012164416821F4A5
:102D700000614160A06BFDF7B7FD0128C1D0A06BD9
:102D80000765A06BFDF79CFD0028BAD0A06BB6E7E5
:102D90002A2E06D12563282084F83D002046FEF720
:102DA00063FC94F83D10202028290DD0216B2229A6
:102DB00001D0222E07D1256384F83D0084F83E50CF
:102DC0002046FEF751FCF8BD0649E162256384F810
:102DD0003D0084F83E502046FEF7E4F9F8BD0000BF
:102DE000D92100080000FFFF70B516460D460446C5
:102DF0000DE02046FFF7A0FB08B1012070BD681C64
:102E000005D0FDF7E9FF801BA84207D835B120683F
:102E10004069C0434007ECD4002070BD002044F856
:102E2000300F20216173A073216941F020012161DD
:102E30002073E2E72DE9F0471E4690460D46044612
:102E4000C1F30747DDF8209008E0701C06D0FDF7BD
:102E5000C3FFA0EB0900B0420FD876B12068012F64
:102E600018D0806925EA00000004000C14D000216D
:102E70004145EAD00020BDE8F087002044F8300F3B
:102E800020216173A073216941F020012161207329
:102E90000120F0E74069E5E70121E9E72DE9F04786
:102EA0009A4691460E46044600254FF02008C1F38D
:102EB000074725E020684069C043400514D42068D6
:102EC000016841F40071016021686FF4806048611D
:102ED000256384F83D8084F83E50206C40F0040067
:102EE000206484F83C501FE0B9F1FF3F08D0FDF7A3
:102EF00073FFA0EB0A0149450CD8B9F1000F09D0C6
:102F00002068012F13D0806926EA00000004000C1D
:102F10000BD0CFE744F8305F84F80D80A5732069AB
:102F200040F02000206125730120BDE8F087406952
:102F3000EAE770B516460D4604460DE02046FFF759
:102F4000FBFA08B1012070BD681C05D0FDF744FFF5
:102F5000801BA84207D835B120684069C0430006ED
:102F6000ECD4002070BD002044F8300F20216173A4
:102F7000A073216941F0200121612073E2E7000084
:102F8000194808B5016841F400110160016801F4B5
:102F900000110091016841F4800101600068002285
:102FA00000F48000009011460B20FEF7C7FB0B20B9
:102FB000FEF7B6FB002211460C20FEF7BFFB0C20EB
:102FC000FEF7AEFB002211461020FEF7B7FB1020E3
:102FD000FEF7A6FB002211461120FEF7AFFBBDE86D
:102FE00008401120FEF79CBB30380240FEE7FEE7A8
:102FF0007047000010B50E4B01781B78994214D130
:103000000B4B417A5B1C1B7899420ED108494378DF
:10301000491ECB7043888B804468C1F80640007A13
:10302000887204480380012000E00020107010BD69
:103030000100002014000020704730B5002306E096
:10304000C45CCD5CAC4201D0002030BD5B1C93421F
:10305000F6DB012030BDFEF709BB000030B593B0B0
:1030600030216846FDF71EFA14210CA8FDF71AFA64
:103070001C480025016841F080510160006800F0A3
:10308000805011901848016841F440410160006887
:10309000022400F4404011900120009000040190AF
:1030A0008001CDE9064008200890C820CDE9090438
:1030B00004200B906846FEF75DFC08B172B6FEE78F
:1030C0000CA90F2081E831004FF48050CDE90F05A5
:1030D00003210CA8FEF764FB002801D072B6FEE7BE
:1030E00013B030BD40380240007000400248016813
:1030F00041F470010160704788ED00E010B5806B0D
:103100000021C185C184FEF700FE10BD70B5846B3F
:103110002068406994F83D10C0F3C01000252129B3
:1031200004D118B1E584204600F0B0F82068406969
:1031300094F83E10C0F38010222904D118B1E5851F
:10314000204600F07CF8206C40F0100020642046FF
:10315000FEF7DBFD70BD10B50146806B096809689C
:10316000C9052FD40021C18501680C3151E8002F19
:1031700022F4807241E80023002BF5D1016814315C
:1031800051E8002F22F0010241E80023002BF5D185
:103190000168143151E8002F22F0400241E8002379
:1031A000002BF5D1202180F83E10016B012909D1B7
:1031B00001680C3151E8002F22F0100241E8002391
:1031C000002BF5D1016B012902D0FEF78DFF10BD58
:1031D000818DFEF799FD10BD10B5806B016B012943
:1031E00002D0FEF79BFF10BD818D4908FEF78CFDD4
:1031F00010BD10B50146806B09680968C90516D471
:103200000021C1840168143151E8002F22F08002AE
:1032100041E80023002BF5D101680C3151E8002F63
:1032200042F0400241E80023002BF5D110BDFEF72B
:10323000BDFF10BD10B5806BFEF7C6FF10BD016865
:103240000C3151E8002F22F4907241E80023002B4A
:10325000F5D10168143151E8002F22F0010241E854
:103260000023002BF5D1016B012909D101680C3134
:1032700051E8002F22F0100241E80023002BF5D185
:10328000202180F83E1000210163704701680C3155
:1032900051E8002F22F0C00241E80023002BF5D1B5
:1032A000202180F83D10704708B590F83E10222983
:1032B00001D0022008BD82684FF480539A4201D1A8
:1032C000016921B1816A9A421BD04AB10AE00268C1
:1032D000816A5268C2F308020A80816A891C08E088
:1032E000026972B10268526802F07F020A70816A54
:1032F000491C8162C18D491E0904090CC18503D096
:1033000019E002685268F1E70168CA6822F02002F9
:10331000CA600168CA6822F48072CA6001684A699A
:1033200022F001024A61202180F83E10016B012940
:1033300003D0FEF7D9FE002008BD0021016301681B
:103340000C3151E8002F22F0100241E80023002B3D
:10335000F5D101680A68D20602D50A684968009169
:10336000818DFEF7D1FCE6E770B50446006801697F
:10337000E26821F44051114301612169A068E269CA
:1033800008436169114308432168CA6849F20C6324
:103390009A430243CA6020684169A26921F44071DE
:1033A0001143416131492068884202D03049884246
:1033B00002D1FEF79FFA01E0FEF78CFAE2690023E2
:1033C000192164253226B2F5004F626828D0A0FB8F
:1033D0000101930F9200FCF7A9FF0146B0FBF5F045
:1033E0006FF01802504301EB800006EB0010B0FBB9
:1033F000F5F000F0F002B1FBF5F002EB0012B1FBCA
:10340000F5F06FF01803584301EB800006EB001055
:10341000B0FBF5F000F00F0021681044886070BD2B
:10342000A0FB010192185B41FCF780FF0146B0FB55
:10343000F5F00201B1FBF5F06FF01803584301EB12
:10344000800006EBC000B0FBF5F000F0F80002EBE6
:103450004002B1FBF5F0584301EB800006EBC000E1
:10346000B0FBF5F000F00700D6E7000000100140C7
:103470000014014038B58162828500251346044658
:103480000564222084F83E00A26B1B48D063A26B27
:103490001A481064A26B1A48D064A06B0A460565EE
:1034A0002168A06B091DFDF75DFB2068016840687D
:1034B000009084F83C5020680C3050E8001F41F424
:1034C000807140E80012002AF5D12068143050E8DD
:1034D000001F41F0010140E80012002AF5D12068E8
:1034E000143050E8001F41F0400140E80012002A6B
:1034F000F5D1002038BD000057310008D93100084F
:103500000D3100080148FEF701BC0000400000201A
:10351000FEE70907090E002804DB00F1E02080F82F
:103520000014704700F00F0000F1E02080F8141D37
:10353000704700000EB5FEF7A1F8FFF78FFD814838
:103540000024016841F080010160016801F0800100
:103550000091016841F001010160016801F0010181
:103560000091016841F002010160006800F0020072
:103570000090FFF705FD7548734901607449C0E983
:1035800001144FF48041C0E9034144618461C46186
:103590000462FDF743FD08B172B6FEE76B486D4962
:1035A000443801604FF4E131C0E901140C21C460DA
:1035B000C0E904418461C461FEF7DCFC08B172B665
:1035C000FEE762480A2264494438FEF777FDDFF8D7
:1035D0008C81634E08F10B0A0127A8F105054FF015
:1035E00005094FF0640B30780028FCD05B490122BC
:1035F000491F5C48FFF721FD58B1544834704FF41F
:1036000000715430CDE9000101230022A02154387B
:1036100026E052490122891E5248FFF70EFD60B193
:1036200034702A894FF00103FF2A01D8A02100E05D
:10363000A221CDE90087454812E048490122491EF0
:103640004848FFF7FAFC70B134702A894FF0010343
:10365000FF2A01D8A02100E0A221CDE900A93B4822
:10366000FDF712FEBFE73D490122091F3D48FFF764
:10367000E4FC48B134702A893B49FF2A8DE882086E
:103680004FF0010332D956E034490122C91E3548B2
:10369000FFF7D3FC34700028A5D02A89FF2A02F056
:1036A0000F0028D80B281DD9C0F11000A8712E4B8F
:1036B000CDE90030CDF808B00123A0212348FDF763
:1036C000CDFE0A20FDF786FAA879274BC0F1050246
:1036D00092B20344CDE90032CDF808B029890844FC
:1036E00082B202E0204B8DE8080A0123A02117488E
:1036F000FDF7B4FE77E70B281FD9C0F11000A871C1
:10370000194BCDE90030CDF808B00123A2210F48B4
:10371000FDF7A4FE0A20FDF75DFAA879124BC0F16F
:10372000050292B20344CDE90032CDF808B02989F0
:10373000084482B204E0A221D9E70B4B8DE8080AC5
:103740000123F8E730380240005400408400002094
:10375000A086010000440040340000201100002039
:103760000000002003000020060000204FF0407001
:10377000E1EE100A70470006101600061016000051
:103780000000000000000102030406070809000011
:103790000000010203040000B83700080000002008
:1037A00034000000D4010008EC3700083400002089
:1037B000840B0000F001000800020300000000007C
:1037C00000000000414344464700000000000000A4
:1037D00000000000000000000000000001000000E8
:0C37E00010000000000000000024F400B5
:040000050800019955
:00000001FF
